{
  "contractName": "Wrestling",
  "abi": [
    {
      "constant": true,
      "inputs": [],
      "name": "theWinner",
      "outputs": [
        {
          "name": "",
          "type": "address"
        }
      ],
      "payable": false,
      "stateMutability": "view",
      "type": "function"
    },
    {
      "constant": true,
      "inputs": [],
      "name": "wrestler2",
      "outputs": [
        {
          "name": "",
          "type": "address"
        }
      ],
      "payable": false,
      "stateMutability": "view",
      "type": "function"
    },
    {
      "constant": true,
      "inputs": [],
      "name": "wrestler1Played",
      "outputs": [
        {
          "name": "",
          "type": "bool"
        }
      ],
      "payable": false,
      "stateMutability": "view",
      "type": "function"
    },
    {
      "constant": true,
      "inputs": [],
      "name": "wrestler1",
      "outputs": [
        {
          "name": "",
          "type": "address"
        }
      ],
      "payable": false,
      "stateMutability": "view",
      "type": "function"
    },
    {
      "constant": true,
      "inputs": [],
      "name": "gameFinished",
      "outputs": [
        {
          "name": "",
          "type": "bool"
        }
      ],
      "payable": false,
      "stateMutability": "view",
      "type": "function"
    },
    {
      "constant": true,
      "inputs": [],
      "name": "wrestler2Played",
      "outputs": [
        {
          "name": "",
          "type": "bool"
        }
      ],
      "payable": false,
      "stateMutability": "view",
      "type": "function"
    },
    {
      "inputs": [],
      "payable": false,
      "stateMutability": "nonpayable",
      "type": "constructor"
    },
    {
      "anonymous": false,
      "inputs": [
        {
          "indexed": false,
          "name": "wrestler1",
          "type": "address"
        },
        {
          "indexed": false,
          "name": "wrestler2",
          "type": "address"
        }
      ],
      "name": "WrestlingStartsEvent",
      "type": "event"
    },
    {
      "anonymous": false,
      "inputs": [
        {
          "indexed": false,
          "name": "wrestler1Deposit",
          "type": "uint256"
        },
        {
          "indexed": false,
          "name": "wrestler2Deposit",
          "type": "uint256"
        }
      ],
      "name": "EndOfRoundEvent",
      "type": "event"
    },
    {
      "anonymous": false,
      "inputs": [
        {
          "indexed": false,
          "name": "winner",
          "type": "address"
        },
        {
          "indexed": false,
          "name": "gains",
          "type": "uint256"
        }
      ],
      "name": "EndOfWrestlingEvent",
      "type": "event"
    },
    {
      "constant": false,
      "inputs": [],
      "name": "registerAsAnOpponent",
      "outputs": [],
      "payable": false,
      "stateMutability": "nonpayable",
      "type": "function"
    },
    {
      "constant": false,
      "inputs": [],
      "name": "wrestle",
      "outputs": [],
      "payable": true,
      "stateMutability": "payable",
      "type": "function"
    },
    {
      "constant": false,
      "inputs": [],
      "name": "withdraw",
      "outputs": [],
      "payable": false,
      "stateMutability": "nonpayable",
      "type": "function"
    }
  ],
  "bytecode": "0x6060604052341561000f57600080fd5b336000806101000a81548173ffffffffffffffffffffffffffffffffffffffff021916908373ffffffffffffffffffffffffffffffffffffffff16021790555061092f8061005e6000396000f300606060405260043610610099576000357c0100000000000000000000000000000000000000000000000000000000900463ffffffff16806303cc55971461009e5780633ccfd60b146100a85780639d24e482146100bd5780639e07f92a146101125780639ede385814610167578063a8b42f1f14610194578063e2f0a978146101a9578063f0f32497146101fe578063f973728e1461022b575b600080fd5b6100a6610258565b005b34156100b357600080fd5b6100bb6104c5565b005b34156100c857600080fd5b6100d061058b565b604051808273ffffffffffffffffffffffffffffffffffffffff1673ffffffffffffffffffffffffffffffffffffffff16815260200191505060405180910390f35b341561011d57600080fd5b6101256105b1565b604051808273ffffffffffffffffffffffffffffffffffffffff1673ffffffffffffffffffffffffffffffffffffffff16815260200191505060405180910390f35b341561017257600080fd5b61017a6105d7565b604051808215151515815260200191505060405180910390f35b341561019f57600080fd5b6101a76105ea565b005b34156101b457600080fd5b6101bc610764565b604051808273ffffffffffffffffffffffffffffffffffffffff1673ffffffffffffffffffffffffffffffffffffffff16815260200191505060405180910390f35b341561020957600080fd5b610211610789565b604051808215151515815260200191505060405180910390f35b341561023657600080fd5b61023e61079c565b604051808215151515815260200191505060405180910390f35b600460009054906101000a900460ff1615801561031957506000809054906101000a900473ffffffffffffffffffffffffffffffffffffffff1673ffffffffffffffffffffffffffffffffffffffff163373ffffffffffffffffffffffffffffffffffffffff1614806103185750600160009054906101000a900473ffffffffffffffffffffffffffffffffffffffff1673ffffffffffffffffffffffffffffffffffffffff163373ffffffffffffffffffffffffffffffffffffffff16145b5b151561032457600080fd5b6000809054906101000a900473ffffffffffffffffffffffffffffffffffffffff1673ffffffffffffffffffffffffffffffffffffffff163373ffffffffffffffffffffffffffffffffffffffff1614156103c55760001515600160149054906101000a900460ff16151514151561039b57600080fd5b60018060146101000a81548160ff021916908315150217905550346002540160028190555061040d565b60001515600160159054906101000a900460ff1615151415156103e757600080fd5b60018060156101000a81548160ff02191690831515021790555034600354016003819055505b600160149054906101000a900460ff1680156104355750600160159054906101000a900460ff165b156104c357600260035402600254101515610479576104746000809054906101000a900473ffffffffffffffffffffffffffffffffffffffff166107af565b6104c2565b60028054026003541015156104b8576104b3600160009054906101000a900473ffffffffffffffffffffffffffffffffffffffff166107af565b6104c1565b6104c0610888565b5b5b5b565b6000600460009054906101000a900460ff16801561053057503373ffffffffffffffffffffffffffffffffffffffff16600460019054906101000a900473ffffffffffffffffffffffffffffffffffffffff1673ffffffffffffffffffffffffffffffffffffffff16145b151561053b57600080fd5b600554905060006005819055503373ffffffffffffffffffffffffffffffffffffffff166108fc829081150290604051600060405180830381858888f19350505050151561058857600080fd5b50565b600460019054906101000a900473ffffffffffffffffffffffffffffffffffffffff1681565b600160009054906101000a900473ffffffffffffffffffffffffffffffffffffffff1681565b600160149054906101000a900460ff1681565b600073ffffffffffffffffffffffffffffffffffffffff16600160009054906101000a900473ffffffffffffffffffffffffffffffffffffffff1673ffffffffffffffffffffffffffffffffffffffff1614151561064757600080fd5b33600160006101000a81548173ffffffffffffffffffffffffffffffffffffffff021916908373ffffffffffffffffffffffffffffffffffffffff1602179055507fd4443f0433b17d5fcbda14745060c62f4fd645677efd560e394d49cc6b73b9e56000809054906101000a900473ffffffffffffffffffffffffffffffffffffffff16600160009054906101000a900473ffffffffffffffffffffffffffffffffffffffff16604051808373ffffffffffffffffffffffffffffffffffffffff1673ffffffffffffffffffffffffffffffffffffffff1681526020018273ffffffffffffffffffffffffffffffffffffffff1673ffffffffffffffffffffffffffffffffffffffff1681526020019250505060405180910390a1565b6000809054906101000a900473ffffffffffffffffffffffffffffffffffffffff1681565b600460009054906101000a900460ff1681565b600160159054906101000a900460ff1681565b6001600460006101000a81548160ff02191690831515021790555080600460016101000a81548173ffffffffffffffffffffffffffffffffffffffff021916908373ffffffffffffffffffffffffffffffffffffffff160217905550600354600254016005819055507f132c17ee6430a7c27424b2711c0e3f020ae13d9d62cfb347ae343c2180654bcb81600554604051808373ffffffffffffffffffffffffffffffffffffffff1673ffffffffffffffffffffffffffffffffffffffff1681526020018281526020019250505060405180910390a150565b6000600160146101000a81548160ff0219169083151502179055506000600160156101000a81548160ff0219169083151502179055507f4a06b026e39d5ecf4150ef1983227e240bcd23677c8d89479f9521c4e7bed63e600254600354604051808381526020018281526020019250505060405180910390a15600a165627a7a723058204f7883eb621a6e7cfda0607ac14f72126488c0a58e52a0b345d1f098805537e80029",
  "source": "pragma solidity ^0.4.18;\n\n    /**\n    * Example script for the Ethereum development walkthrough\n    */\n\ncontract Wrestling {\n    /**\n    * Our wrestlers\n    */\n\taddress public wrestler1;\n\taddress public wrestler2;\n\n\tbool public wrestler1Played;\n\tbool public wrestler2Played;\n\n\tuint private wrestler1Deposit;\n\tuint private wrestler2Deposit;\n\n\tbool public gameFinished; \n    address public theWinner;\n    uint gains;\n\n    /**\n    * The logs that will be emitted in every step of the contract's life cycle\n    */\n\tevent WrestlingStartsEvent(address wrestler1, address wrestler2);\n\tevent EndOfRoundEvent(uint wrestler1Deposit, uint wrestler2Deposit);\n\tevent EndOfWrestlingEvent(address winner, uint gains);\n\n    /**\n    * The contract constructor\n    */\n\tfunction Wrestling() public {\n\t\twrestler1 = msg.sender;\n\t}\n\n    /**\n    * A second wrestler can register as an opponent\n    */\n\tfunction registerAsAnOpponent() public {\n        require(wrestler2 == address(0));\n\n        wrestler2 = msg.sender;\n\n        WrestlingStartsEvent(wrestler1, wrestler2);\n    }\n\n    /**\n    * Every round a player can put a sum of ether, if one of the player put in twice or \n    * more the money (in total) than the other did, the first wins \n    */\n    function wrestle() public payable {\n    \trequire(!gameFinished && (msg.sender == wrestler1 || msg.sender == wrestler2));\n\n    \tif(msg.sender == wrestler1) {\n    \t\trequire(wrestler1Played == false);\n    \t\twrestler1Played = true;\n    \t\twrestler1Deposit = wrestler1Deposit + msg.value;\n    \t} else { \n    \t\trequire(wrestler2Played == false);\n    \t\twrestler2Played = true;\n    \t\twrestler2Deposit = wrestler2Deposit + msg.value;\n    \t}\n    \tif(wrestler1Played && wrestler2Played) {\n    \t\tif(wrestler1Deposit >= wrestler2Deposit * 2) {\n    \t\t\tendOfGame(wrestler1);\n    \t\t} else if (wrestler2Deposit >= wrestler1Deposit * 2) {\n    \t\t\tendOfGame(wrestler2);\n    \t\t} else {\n                endOfRound();\n    \t\t}\n    \t}\n    }\n\n    function endOfRound() internal {\n    \twrestler1Played = false;\n    \twrestler2Played = false;\n\n    \tEndOfRoundEvent(wrestler1Deposit, wrestler2Deposit);\n    }\n\n    function endOfGame(address winner) internal {\n        gameFinished = true;\n        theWinner = winner;\n\n        gains = wrestler1Deposit + wrestler2Deposit;\n        EndOfWrestlingEvent(winner, gains);\n    }\n\n    /**\n    * The withdraw function, following the withdraw pattern shown and explained here: \n    * http://solidity.readthedocs.io/en/develop/common-patterns.html#withdrawal-from-contracts\n    */\n    function withdraw() public {\n        require(gameFinished && theWinner == msg.sender);\n\n        uint amount = gains;\n\n        gains = 0;\n        msg.sender.transfer(amount);\n    }\n}\n",
  "sourcePath": "/Applications/XAMPP/xamppfiles/code/server/js-web-skills/blockchain/eth_test/truffle_test/contracts/Wrestling.sol",
  "compiler": {
    "name": "solc",
    "version": "0.4.21+commit.dfe3193c.Emscripten.clang"
  },
  "schemaVersion": "2.0.0",
  "updatedAt": "2018-04-18T04:32:39.253Z"
}